:100BC1006672616D655B25645D3A20256C6C6420FD
:100BD1000D0A006D61696E200D0A002578202578C7
:100BE100202578202578207C20257820257820252F
:070BF100782025780D0A00B1
:080C380041008200C109C10A5C
:080C41003099FDC2998F992240
:03001300020727BA
:10072700C0E0C0F0C083C082C0D075D000C000C098
:1007370001C002C003C004C005C006C007300937A6
:10074700120003900082E025E02400F582E43400E3
:10075700F583EEF0A3EFF0900082E004F0120C2591
:10076700D28C900082E0C39441748094804015D26B
:100777000BC2AFC28C800D200A08D209D28CD20AD4
:100787008002C20AB283D007D006D005D004D003B6
:10079700D002D001D000D0D0D082D083D0F0D0E02A
:0107A700321F
:10088900E4900083F0A3F0A3F0120BF8300BFDE421
:10089900900085F0900085E0C39441748094805065
:1008A900347BFF7A0B79C1E0FD900092E4F0A3ED6F
:1008B900F025E02400F582E43400F583E0FEA3E0AE
:1008C900FFE4FCFD90009412047F120081900085E2
:1008D900E004F080BF1205177FC87E007D007C0010
:0A08E9001209AF120B16D2AF80A265
:100BF8007F007EC27D017C00120B517BFF7A0B794E
:100C0800D4120081120B1653B1F743B2085389F07E
:0D0C1800438901120C25D28AD2AAD2AF2244
:030C2500E4FFFEEB
:100C2800AD07AC06ED4C7E00EEFF8F8CEDF58A2209
:08000300AF8CEFFEAD8AEDFFAA
:01000B0022D2
:100B1600E4900082F0900082E0FFC39441748094D8
:100B2600805018EF25E02400F582E43400F583E4D4
:100B3600F0A3F0900082E004F080DAE4FFFE120CED
:0B0B460028C20BE4900082F0C20922DC
:10068D00E4FE900082EFF0900082E0FFD39D4003E6
:10069D00020724EE25E0FEEF25E02400F582E43488
:1006AD0000F583E0FAA3E0FBC39460EA9409400FE0
:1006BD00D3EB9410EA940E5006EE4401FE804F9059
:1006CD000082E025E02400F582E43400F583E0FAB1
:1006DD00A3E0FBC394B0EA9404400BD3EB9408EA77
:1006ED00940750028028900082E025E02400F582D6
:1006FD00E43400F583E0FAA3E0FBC394B0EA94364A
:10070D00400CD3EB94F0EA945550037FFF229000F8
:09071D0082E004F0020694AF062C
:0107260022B0
:100B8A009000B7EBF0A3EAF0A3E9F07D087F011229
:100B9A00068D9000B7E0FBA3E0FAA3E0F9EF120399
:100BAA007B7D187F1112068D9000BAE0FBA3E0FA54
:070BBA00A3E0F9EF02037B49
:100517007D087F0112068D900086EFF07D107F0920
:1005270012068D900087EFF07D187F1112068D90CF
:100537000088EFF07D207F0F12068D900089EFF085
:100547007D287F2112068D90008AEFF07D307F296C
:1005570012068D90008BEFF07D387F3112068D905B
:10056700008CEFF07D407F3912068D90008DEFF003
:100577007BFF7A0B79DC900086E0FD900092E4F037
:10058700A3EDF0900087E0FD900094E4F0A3EDF078
:10059700900088E0FD900096E4F0A3EDF0900089CC
:1005A700E0FD900098E4F0A3EDF090008AE0FD9064
:1005B700009AE4F0A3EDF090008BE0FD90009CE43E
:1005C700F0A3EDF090008CE0FD90009EE4F0A3ED29
:0A05D700F0A3E4F0A3EFF0020081AE
:100B510053B1BF53B2BF53B17F53B27F7598504366
:100B61008920438780438E1053C4DFAB07AA06A9AF
:100B710005A8047F407E427D0F7C001203C9EF046B
:090B8100F404F58DD28ED2992204
:1007A8009000BD12047F53B1BF53B2BF53B17F5302
:1007B800B27F75985043878053C4F843C420900093
:1007C800BDE0F8A3E0F9A3E0FAA3E0FB7F407E4296
:1007D8007D0F7C001203C9C374FF9FFF74FF9EFE48
:1007E800E49DFDE49CFC780812046C8FC69000BD63
:1007F800E0F8A3E0F9A3E0FAA3E0FB7F407E427DA6
:100808000F7C001203C9C374FF9FFF8FC543C40840
:03081800D2992250
:070C49003098FDAF99C2983D
:010C50002281
:080C5100C2998F993099FD2230
:10081B009000C112047F53B1FB53B2FB53B3BF53D0
:10082B00B4BF75F85075C40853C4DF9000C1E0F82D
:10083B00A3E0F9A3E0FAA3E0FB7F407E427D0F7CAF
:10084B00001203C9C374FF9FFF74FF9EFEE49DFD5E
:10085B00E49CFC780812046C8FC69000C1E0F8A3EE
:10086B00E0F9A3E0FAA3E0FB7F407E427D0F7C0022
:0E087B001203C9C374FF9FFF8FC543C4082238
:070C590030F8FDAF9AC2F86C
:010C60002271
:080C6100C2F98F9A30F9FD225F
:100A0B009000C512047F538EF7438901D28CE4FF0B
:100A1B00FEFDFC9000C5E0F8A3E0F9A3E0FAA3E02B
:100A2B00FBC312045B602F758A7E758CFF308DFDC6
:100A3B00C28D9000C5E0FCA3E0FDA3E0FEA3E02483
:100A4B00FFFFEE34FFFEED34FFFDEC34FFFC9000B6
:090A5B00C512047F80B8C28C2290
:100A64009000C912047F538EF7438901D28CE4FFAE
:100A7400FEFDFC9000C9E0F8A3E0F9A3E0FAA3E0CE
:100A8400FBC312045B602F758ACA758CFA308DFD26
:100A9400C28D9000C9E0FCA3E0FDA3E0FEA3E02426
:100AA400FFFFEE34FFFEED34FFFDEC34FFFC90005D
:090AB400C912047F80B8C28C2233
:100ABD009000CD12047F538EEF438910D28EE4FF48
:100ACD00FEFDFC9000CDE0F8A3E0F9A3E0FAA3E071
:100ADD00FBC312045B602F758BEA758DCB308FFDD8
:100AED00C28F9000CDE0FCA3E0FDA3E0FEA3E024C7
:100AFD00FFFFEE34FFFEED34FFFDEC34FFFC900004
:090B0D00CD12047F80B8C28E22D3
:1009AF0090008612047F53C9BF53C9DF43C910D2C9
:1009BF00CAE4FFFEFDFC900086E0F8A3E0F9A3E097
:1009CF00FAA3E0FBC312045B602F75CC3075CDF832
:1009DF0030CFFDC2CF900086E0FCA3E0FDA3E0FE88
:1009EF00A3E024FFFFEE34FFFEED34FFFDEC34FFF8
:0C09FF00FC90008612047F80B8C2CA225F
:1008F3009000D112047F75C40743C408E4FFFEFDD2
:10090300FC9000D1E0F8A3E0F9A3E0FAA3E0FBC375
:1009130012045B603575C52C75C6CFE5C4541064ED
:100923001070F853C4EF9000D1E0FCA3E0FDA3E006
:10093300FEA3E024FFFFEE34FFFEED34FFFDEC34B5
:0E094300FFFC9000D112047F80B253C4F72253
:100951009000D512047F75C40743C408E4FFFEFD6F
:10096100FC9000D5E0F8A3E0F9A3E0FAA3E0FBC313
:1009710012045B603575C5D875C6FFE5C4541064B3
:100981001070F853C4EF9000D5E0FCA3E0FDA3E0A4
:10099100FEA3E024FFFFEE34FFFEED34FFFDEC3457
:0E09A100FFFC9000D512047F80B253C4F722F1
:030000000205E115
:1005E10075C7AA75C75575FD5A75C7AA75C75575DB
:1005F100FDA5787FE4F6D8FD9000007FFF7E03E43F
:0C060100F0A3DFFCDEFA75812102064840
:10060D00020889E493A3F8E493A34003F68001F272
:10061D0008DFF48029E493A3F85407240CC8C333EE
:10062D00C4540F4420C8834004F456800146F6DFBD
:10063D00E4800B0102040810204080900C38E47E09
:10064D00019360BCA3FF543F30E509541FFEE493B2
:10065D00A360010ECF54C025E060A840B8E493A379
:10066D00FAE493A3F8E493A3C8C582C8CAC583CAA4
:10067D00F0A3C8C582C8CAC583CADFE9DEE780BE5C
:010C400000B3
:10037B00BB010689828A83F0225002F722BBFE0161
:02038B00F3225B
:10038D0075F008758200EF2FFFEE33FECD33CDCC27
:10039D0033CCC58233C5829BED9AEC99E5829840AA
:1003AD000CF582EE9BFEED9AFDEC99FC0FD5F0D687
:1003BD00E4CEFBE4CDFAE4CCF9A88222B800C1B9B1
:1003CD000059BA002DEC8BF084CFCECDFCE5F0CBEF
:1003DD00F97818EF2FFFEE33FEED33FDEC33FCEB28
:1003ED0033FB10D703994004EB99FB0FD8E5E4F9E3
:1003FD00FA227818EF2FFFEE33FEED33FDEC33FCD0
:10040D00C933C910D7059BE99A4007EC9BFCE99AC3
:10041D00F90FD8E0E4C9FAE4CCFB2275F010EF2F08
:10042D00FFEE33FEED33FDCC33CCC833C810D70708
:10043D009BEC9AE899400AED9BFDEC9AFCE899F843
:0E044D000FD5F0DAE4CDFBE4CCFAE4C8F922D6
:10045B00EB9FF5F0EA9E42F0E99D42F0E89C45F0F7
:01046B00226E
:10046C00E8600FECC313FCED13FDEE13FEEF13FF6E
:03047C00D8F12292
:0C047F00ECF0A3EDF0A3EEF0A3EFF022F0
:10001600E5082492F582E43400F583E00508229091
:10002600008F300703900092E475F0011204D102AC
:10003600048B2000E97F2ED2008018EF540F249005
:10004600D43440D4FF30040BEF24BFB41A0050035D
:100056002461FFE50960021509050CE50C7002052F
:100066000B30070E90008FE475F0011204D1EF02F9
:10007600037B020C417403D2078003E4C207F50830
:1000860090008F1204E8E4F509F50BF50CE509601C
:10009600077F2012005980F5750AFFC201C200C20F
:1000A60002C203C205C206C208120025FF700D3047
:1000B60007057F0012006AAF0CAE0B22B4255FC2A3
:1000C600D5C204120025FF24D0B40A00501A75F0D8
:1000D6000A780930D50508B6FF0106C6A426F6201B
:1000E600D5047002D20380D924CFB41A00EF50048D
:1000F600C2E5D20402026BD20180C6D20080C0D211
:100106000280BCD2D580BAD20580B47F20120059B5
:100116002002077401B5090040F1120016FF120013
:1001260059020093D208D2068095120016FB1200DF
:1001360016FA120016F94A4B7006793C7A037BFFD1
:1001460020022EE509602A7E008E82758300120445
:10015600A460060EEE650A70F0C2D5EBC0E0EAC0F8
:10016600E0E9C0E0EE1202B2D0E0F9D0E0FAD0E069
:10017600FB12048BFF60AAEBC0E0EAC0E0E9C0E036
:10018600120059D0E02401F9D0E03400FAD0E0FBA7
:10019600E50A0460DCD50AD980877BFF7A0279AE4E
:1001A600D202809C791080027908C206C2088008B3
:1001B600D2D5790A8004790AC2D5E50A047002F517
:1001C6000AE4FAFDFEFF120016FC7B08200113125A
:1001D6000016FD7B1030000A120016FE120016FFF4
:1001E6007B20EC3382D592D55013C3E43000069FB2
:1001F600FFE49EFEE42001039DFDE49CFCE4CBF8B5
:10020600C201EC700CCFCECDCCE824F8F870F380A8
:1002160017C3EF33FFEE33FEED33FDEC33FCEB3368
:10022600FB994002FB0FD8E9EB300105F8D0E0C49A
:1002360048B201C0E00AEC4D4E4F78207B0070C2F8
:10024600EAB50A0040BCC0E01202B4D0F0D0E0200B
:100256000104C4C0E0C4B201C0F0120042D0F0D51F
:10026600F0EB0200931204F101305301AA58010188
:100276004C00FD4201AE4F01B64401B6490116439A
:0802860001BC5501A04601A0D6
:10028E004501A047035C5001052D01092E012C2BC1
:10029E00010D23012A2003452A00C5480000012430
:1002AE003F3F3F00790AA2D5200314300509B9104B
:1002BE00020404B9080104A2D5200602500104204C
:1002CE0002689202B509005034C0E07F2030031955
:1002DE007F30A20272067205500F12030BC202C2C9
:1002EE0006C205C2087F30800F300503E9C0E01258
:1002FE000059300503D0E0F9D0E0B509CC30051730
:10030E007F30B9100C1200597F583004077F788067
:10031E0003B908031200593002057F2D0200597FE0
:10032E00202008F87F2B2006F322920280CF286E21
:10033E00756C6C2900D2011200163001F8C20178DA
:10034E000930D50108F60200C52D50434958120058
:10035E00162403B405004001E49003579312004A9B
:0D036E00743A12004AD2037509040201AA74
:10048B00BB010689828A83E0225002E722BBFE026F
:09049B00E32289828A83E49322A2
:1004A400BB010CE58229F582E5833AF583E022500D
:1004B40006E92582F8E622BBFE06E92582F8E22257
:0D04C400E58229F582E5833AF583E4932271
:1004D100F8E0FBA3A3E0F925F0F0E58215827002B4
:0704E1001583E0FA38F02258
:0904E800EBF0A3EAF0A3E9F02215
:1004F100D083D082F8E4937012740193700DA3A39A
:1005010093F8740193F5828883E4737402936860AD
:06051100EFA3A3A380DFAD
:00000001FF
