:100B21006672616D655B25645D3A20256C6C64209D
:0B0B31000D0A006D61696E200D0A00C6
:080B4F0041008200C109C10A46
:080B58003099FDC2998F99222A
:0300130002065D85
:10065D00C0E0C0F0C083C082C0D075D000C000C063
:10066D0001C002C003C004C005C006C00730093771
:10067D00120003900082E025E02400F582E43400AE
:10068D00F583EEF0A3EFF0900082E004F0120B3C46
:10069D00D28C900082E0C39441748094804015D236
:1006AD000BC2AFC28C800D200A08D209D28CD20A9F
:1006BD008002C20AB283D007D006D005D004D00381
:1006CD00D002D001D000D0D0D082D083D0F0D0E0F5
:0106DD0032EA
:1007BF00E4900083F0A3F0A3F0120AF4300BFDE4F1
:1007CF00900085F0900085E0C39441748094805030
:1007DF00347BFF7A0B7921E0FD900089E4F0A3EDE3
:1007EF00F025E02400F582E43400F583E0FEA3E079
:1007FF00FFE4FCFD90008B12047F120081900085B6
:10080F00E004F080BF7FC87E007D007C001208E20C
:07081F00120A49D2AF80A5C7
:100AF4007F007EC27D017C00120A847BFF7A0B7921
:100B040034120081120A4953B1F743B2085389F0F1
:0D0B1400438901120B3CD28AD2AAD2AF2233
:030B3C00E4FFFED5
:100B3F00AD07AC06ED4C7E00EEFF8F8CEDF58A22F3
:08000300AF8CEFFEAD8AEDFFAA
:01000B0022D2
:100A4900E4900082F0900082E0FFC39441748094A6
:100A5900805018EF25E02400F582E43400F583E4A2
:100A6900F0A3F0900082E004F080DAE4FFFE120BBC
:0B0A79003FC20BE4900082F0C2092293
:1005C300E4FE900082EFF0900082E0FFD39D4003B1
:1005D30002065AEE25E0FEEF25E02400F582E4341E
:1005E30000F583E0FAA3E0FBC39460EA9409400FAB
:1005F300D3EB9410EA940E5006EE4401FE804F9024
:100603000082E025E02400F582E43400F583E0FA7B
:10061300A3E0FBC394B0EA9404400BD3EB9408EA41
:10062300940750028028900082E025E02400F582A0
:10063300E43400F583E0FAA3E0FBC394B0EA943614
:10064300400CD3EB94F0EA945550037FFF229000C3
:0906530082E004F00205CAAF06C2
:01065C00227B
:100ABD009000AEEBF0A3EAF0A3E9F07D097F0212FE
:100ACD0005C39000AEE0FBA3E0FAA3E0F9EF12033B
:100ADD007B7D197F121205C39000B1E0FBA3E0FAF4
:070AED00A3E0F9EF02037B17
:100A840053B1BF53B2BF53B17F53B27F7598504334
:100A94008920438780438E1053C4DFAB07AA06A97D
:100AA40005A8047F407E427D0F7C001203C9EF0439
:090AB400F404F58DD28ED29922D2
:1006DE009000B412047F53B1BF53B2BF53B17F53D6
:1006EE00B27F75985043878053C4F843C42090005E
:1006FE00B4E0F8A3E0F9A3E0FAA3E0FB7F407E426A
:10070E007D0F7C001203C9C374FF9FFF74FF9EFE12
:10071E00E49DFDE49CFC780812046C8FC69000B436
:10072E00E0F8A3E0F9A3E0FAA3E0FB7F407E427D70
:10073E000F7C001203C9C374FF9FFF8FC543C4080B
:03074E00D299221B
:070B60003098FDAF99C29827
:010B6700226B
:080B6800C2998F993099FD221A
:100751009000B812047F53B1FB53B2FB53B3BF53A4
:10076100B4BF75F85075C40853C4DF9000B8E0F801
:10077100A3E0F9A3E0FAA3E0FB7F407E427D0F7C7A
:10078100001203C9C374FF9FFF74FF9EFEE49DFD29
:10079100E49CFC780812046C8FC69000B8E0F8A3C2
:1007A100E0F9A3E0FAA3E0FB7F407E427D0F7C00ED
:0E07B1001203C9C374FF9FFF8FC543C4082203
:070B700030F8FDAF9AC2F856
:010B7700225B
:080B7800C2F98F9A30F9FD2249
:10093E009000BC12047F538EF7438901D28CE4FFE2
:10094E00FEFDFC9000BCE0F8A3E0F9A3E0FAA3E002
:10095E00FBC312045B602F758A7E758CFF308DFD94
:10096E00C28D9000BCE0FCA3E0FDA3E0FEA3E0245A
:10097E00FFFFEE34FFFEED34FFFDEC34FFFC900084
:09098E00BC12047F80B8C28C2267
:100997009000C012047F538EF7438901D28CE4FF85
:1009A700FEFDFC9000C0E0F8A3E0F9A3E0FAA3E0A5
:1009B700FBC312045B602F758ACA758CFA308DFDF4
:1009C700C28D9000C0E0FCA3E0FDA3E0FEA3E024FD
:1009D700FFFFEE34FFFEED34FFFDEC34FFFC90002B
:0909E700C012047F80B8C28C220A
:1009F0009000C412047F538EEF438910D28EE4FF1F
:100A0000FEFDFC9000C4E0F8A3E0F9A3E0FAA3E047
:100A1000FBC312045B602F758BEA758DCB308FFDA5
:100A2000C28F9000C4E0FCA3E0FDA3E0FEA3E0249D
:100A3000FFFFEE34FFFEED34FFFDEC34FFFC9000D1
:090A4000C412047F80B8C28E22AA
:1008E20090008612047F53C9BF53C9DF43C910D297
:1008F200CAE4FFFEFDFC900086E0F8A3E0F9A3E065
:10090200FAA3E0FBC312045B602F75CC3075CDF8FF
:1009120030CFFDC2CF900086E0FCA3E0FDA3E0FE55
:10092200A3E024FFFFEE34FFFEED34FFFDEC34FFC5
:0C093200FC90008612047F80B8C2CA222C
:100826009000C812047F75C40743C408E4FFFEFDA8
:10083600FC9000C8E0F8A3E0F9A3E0FAA3E0FBC34C
:1008460012045B603575C52C75C6CFE5C4541064BB
:100856001070F853C4EF9000C8E0FCA3E0FDA3E0DD
:10086600FEA3E024FFFFEE34FFFEED34FFFDEC3483
:0E087600FFFC9000C812047F80B253C4F7222A
:100884009000CC12047F75C40743C408E4FFFEFD46
:10089400FC9000CCE0F8A3E0F9A3E0FAA3E0FBC3EA
:1008A40012045B603575C5D875C6FFE5C454106481
:1008B4001070F853C4EF9000CCE0FCA3E0FDA3E07B
:1008C400FEA3E024FFFFEE34FFFEED34FFFDEC3425
:0E08D400FFFC9000CC12047F80B253C4F722C8
:03000000020517DF
:1005170075C7AA75C75575FD5A75C7AA75C75575A5
:10052700FDA5787FE4F6D8FD9000007FFF7E03E409
:0C053700F0A3DFFCDEFA75812102057ED6
:100543000207BFE493A3F8E493A34003F68001F208
:1005530008DFF48029E493A3F85407240CC8C333B9
:10056300C4540F4420C8834004F456800146F6DF88
:10057300E4800B0102040810204080900B4FE47EBE
:10058300019360BCA3FF543F30E509541FFEE4937D
:10059300A360010ECF54C025E060A840B8E493A344
:1005A300FAE493A3F8E493A3C8C582C8CAC583CA6F
:1005B300F0A3C8C582C8CAC583CADFE9DEE780BE27
:010B5700009D
:10037B00BB010689828A83F0225002F722BBFE0161
:02038B00F3225B
:10038D0075F008758200EF2FFFEE33FECD33CDCC27
:10039D0033CCC58233C5829BED9AEC99E5829840AA
:1003AD000CF582EE9BFEED9AFDEC99FC0FD5F0D687
:1003BD00E4CEFBE4CDFAE4CCF9A88222B800C1B9B1
:1003CD000059BA002DEC8BF084CFCECDFCE5F0CBEF
:1003DD00F97818EF2FFFEE33FEED33FDEC33FCEB28
:1003ED0033FB10D703994004EB99FB0FD8E5E4F9E3
:1003FD00FA227818EF2FFFEE33FEED33FDEC33FCD0
:10040D00C933C910D7059BE99A4007EC9BFCE99AC3
:10041D00F90FD8E0E4C9FAE4CCFB2275F010EF2F08
:10042D00FFEE33FEED33FDCC33CCC833C810D70708
:10043D009BEC9AE899400AED9BFDEC9AFCE899F843
:0E044D000FD5F0DAE4CDFBE4CCFAE4C8F922D6
:10045B00EB9FF5F0EA9E42F0E99D42F0E89C45F0F7
:01046B00226E
:10046C00E8600FECC313FCED13FDEE13FEEF13FF6E
:03047C00D8F12292
:0C047F00ECF0A3EDF0A3EEF0A3EFF022F0
:10001600E5082489F582E43400F583E0050822909A
:100026000086300703900089E475F0011204D102BE
:10003600048B2000E97F2ED2008018EF540F249005
:10004600D43440D4FF30040BEF24BFB41A0050035D
:100056002461FFE50960021509050CE50C7002052F
:100066000B30070E900086E475F0011204D1EF0202
:10007600037B020B587403D2078003E4C207F5081A
:100086009000861204E8E4F509F50BF50CE5096025
:10009600077F2012005980F5750AFFC201C200C20F
:1000A60002C203C205C206C208120025FF700D3047
:1000B60007057F0012006AAF0CAE0B22B4255FC2A3
:1000C600D5C204120025FF24D0B40A00501A75F0D8
:1000D6000A780930D50508B6FF0106C6A426F6201B
:1000E600D5047002D20380D924CFB41A00EF50048D
:1000F600C2E5D20402026BD20180C6D20080C0D211
:100106000280BCD2D580BAD20580B47F20120059B5
:100116002002077401B5090040F1120016FF120013
:1001260059020093D208D2068095120016FB1200DF
:1001360016FA120016F94A4B7006793C7A037BFFD1
:1001460020022EE509602A7E008E82758300120445
:10015600A460060EEE650A70F0C2D5EBC0E0EAC0F8
:10016600E0E9C0E0EE1202B2D0E0F9D0E0FAD0E069
:10017600FB12048BFF60AAEBC0E0EAC0E0E9C0E036
:10018600120059D0E02401F9D0E03400FAD0E0FBA7
:10019600E50A0460DCD50AD980877BFF7A0279AE4E
:1001A600D202809C791080027908C206C2088008B3
:1001B600D2D5790A8004790AC2D5E50A047002F517
:1001C6000AE4FAFDFEFF120016FC7B08200113125A
:1001D6000016FD7B1030000A120016FE120016FFF4
:1001E6007B20EC3382D592D55013C3E43000069FB2
:1001F600FFE49EFEE42001039DFDE49CFCE4CBF8B5
:10020600C201EC700CCFCECDCCE824F8F870F380A8
:1002160017C3EF33FFEE33FEED33FDEC33FCEB3368
:10022600FB994002FB0FD8E9EB300105F8D0E0C49A
:1002360048B201C0E00AEC4D4E4F78207B0070C2F8
:10024600EAB50A0040BCC0E01202B4D0F0D0E0200B
:100256000104C4C0E0C4B201C0F0120042D0F0D51F
:10026600F0EB0200931204F101305301AA58010188
:100276004C00FD4201AE4F01B64401B6490116439A
:0802860001BC5501A04601A0D6
:10028E004501A047035C5001052D01092E012C2BC1
:10029E00010D23012A2003452A00C5480000012430
:1002AE003F3F3F00790AA2D5200314300509B9104B
:1002BE00020404B9080104A2D5200602500104204C
:1002CE0002689202B509005034C0E07F2030031955
:1002DE007F30A20272067205500F12030BC202C2C9
:1002EE0006C205C2087F30800F300503E9C0E01258
:1002FE000059300503D0E0F9D0E0B509CC30051730
:10030E007F30B9100C1200597F583004077F788067
:10031E0003B908031200593002057F2D0200597FE0
:10032E00202008F87F2B2006F322920280CF286E21
:10033E00756C6C2900D2011200163001F8C20178DA
:10034E000930D50108F60200C52D50434958120058
:10035E00162403B405004001E49003579312004A9B
:0D036E00743A12004AD2037509040201AA74
:10048B00BB010689828A83E0225002E722BBFE026F
:09049B00E32289828A83E49322A2
:1004A400BB010CE58229F582E5833AF583E022500D
:1004B40006E92582F8E622BBFE06E92582F8E22257
:0D04C400E58229F582E5833AF583E4932271
:1004D100F8E0FBA3A3E0F925F0F0E58215827002B4
:0704E1001583E0FA38F02258
:0904E800EBF0A3EAF0A3E9F02215
:1004F100D083D082F8E4937012740193700DA3A39A
:1005010093F8740193F5828883E4737402936860AD
:06051100EFA3A3A380DFAD
:00000001FF
