:080C5F006D61696E200D0A00B1
:080C57003099FDC2998F99222A
:100BF3007F007EC27D017C00120BBA7BFF7A0C79E9
:100C03005F120081120C3112000CEF60FA1205170B
:020C130080F56A
:100C15002578202578202578202578207C202578A2
:0C0C25002025782025782025780D0A0075
:1007EA00C10B41008200608200000000000000008E
:1007FA0000000000000000000000000000000000EF
:10080A0000000000000000000000000000000000DE
:10081A0000000000000000000000000000000000CE
:10082A0000000000000000000000000000000000BE
:10083A0000000000000000000000000000000000AE
:10084A00000000000000000000000000000000009E
:10085A00000000000000000000000000000000008E
:10086A00000000000000000000000000C109C10AE9
:030013000205F2F1
:1005F200C0E0C0F0C083C082C0D075D000C000C0CF
:1006020001C002C003C004C005C006C00712000337
:10061200900082E0FD25E02400F582E43400F583B9
:10062200EEF0A3EFF0ED25E02400F582E43400F5CE
:1006320083E0FEA3E0FFD39468EE9442400AEF9475
:1006420020EE944E5002D209300906900082E00456
:10065200F0120C44D28C900082E025E02400F58256
:10066200E43400F583E0FEC3EE94005007C2099023
:100672000082E4F0900082E0C39441748094804050
:1006820006D20BC2AFC28CD007D006D005D004D0A0
:1006920003D002D001D000D0D0D082D083D0F0D00D
:0206A200E03244
:100C3100120B7F5389F0438901120C44D28AD2AA44
:030C4100D2AF220D
:030C4400E4FFFECC
:100C4700AD07AC06ED4C7E00EEFF8F8CEDF58A22EA
:08000300AF8CEFFEAD8AEDFFAA
:01000B0022D2
:100B7F00E4900082F0900082E0FFC394417480946F
:100B8F00805018EF25E02400F582E43400F583E46B
:100B9F00F0A3F0900082E004F080DAE4FFFE120C84
:0B0BAF0047C20BE4900082F0C2092254
:10075000E4FE900082EFF0900082E0FFD39D400322
:100760000207E7EE25E0FEEF25E02400F582E43401
:1007700000F583E0FAA3E0FBC394D0EA9407400FAE
:10078000D3EB9410EA940E5006EE4401FE804F9095
:100790000082E025E02400F582E43400F583E0FAED
:1007A000A3E0FBC39420EA9403400BD3EB9408EA44
:1007B000940750028028900082E025E02400F58212
:1007C000E43400F583E0FAA3E0FBC394E0EA942E5E
:1007D000400CD3EB9468EA944250037FFF229000D0
:0907E00082E004F0020757AF06A5
:0107E90022ED
:100517007D087F01120750900083EFF07D107F095F
:10052700120750900084EFF07D187F11120750904A
:100537000085EFF07D207F0F120750900086EFF0C7
:100547007D287F21120750900087EFF07D307F29AB
:10055700120750900088EFF07D387F3112075090D6
:100567000089EFF07D407F3912075090008AEFF045
:100577007BFF7A0C7915900083E0FD90008EE4F004
:10058700A3EDF0900084E0FD900090E4F0A3EDF07F
:10059700900085E0FD900092E4F0A3EDF0900086D6
:1005A700E0FD900094E4F0A3EDF0900087E0FD906B
:1005B7000096E4F0A3EDF0900088E0FD900098E449
:1005C700F0A3EDF0900089E0FD90009AE4F0A3ED30
:1005D700F0A3E4F0A3EFF01200817F907E017D008D
:0A05E7007C00120A18120B7FD2AF3D
:0105F10022E7
:06000C00A20BE433FF2209
:100BBA0053B1BF53B2BF53B17F53B27F75985043FD
:100BCA008920438780438E1053C4DFAB07AA06A946
:100BDA0005A8047F407E427D0F7C001203B7EF0414
:090BEA00F404F58DD28ED299229B
:10087B009000B312046D53B1BF53B2BF53B17F534A
:10088B00B27F75985043878053C4F843C4209000BF
:10089B00B3E0F8A3E0F9A3E0FAA3E0FB7F407E42CC
:1008AB007D0F7C001203B7C374FF9FFF74FF9EFE86
:1008BB00E49DFDE49CFC780812045A8FC69000B3AB
:1008CB00E0F8A3E0F9A3E0FAA3E0FB7F407E427DD2
:1008DB000F7C001203B7C374FF9FFF8FC543C4087F
:0308EB00D299227D
:070C67003098FDAF99C2981F
:010C6E002263
:080C6F00C2998F993099FD2212
:1008EE009000B712046D53B1FB53B2FB53B3BF5319
:1008FE00B4BF75F85075C40853C4DF9000B7E0F864
:10090E00A3E0F9A3E0FAA3E0FB7F407E427D0F7CDB
:10091E00001203B7C374FF9FFF74FF9EFEE49DFD9C
:10092E00E49CFC780812045A8FC69000B7E0F8A336
:10093E00E0F9A3E0FAA3E0FB7F407E427D0F7C004E
:0E094E001203B7C374FF9FFF8FC543C4082276
:070C770030F8FDAF9AC2F84E
:010C7E002253
:080C7F00C2F98F9A30F9FD2241
:100A74009000BB12046D538EF7438901D28CE4FFBE
:100A8400FEFDFC9000BBE0F8A3E0F9A3E0FAA3E0CC
:100A9400FBC3120449602F758A7E758CFF308DFD6F
:100AA400C28D9000BBE0FCA3E0FDA3E0FEA3E02424
:100AB400FFFFEE34FFFEED34FFFDEC34FFFC90004D
:090AC400BB12046D80B8C28C2243
:100ACD009000BF12046D538EF7438901D28CE4FF61
:100ADD00FEFDFC9000BFE0F8A3E0F9A3E0FAA3E06F
:100AED00FBC3120449602F758ACA758CFA308DFDCF
:100AFD00C28D9000BFE0FCA3E0FDA3E0FEA3E024C7
:100B0D00FFFFEE34FFFEED34FFFDEC34FFFC9000F3
:090B1D00BF12046D80B8C28C22E5
:100B26009000C312046D538EEF438910D28EE4FFFA
:100B3600FEFDFC9000C3E0F8A3E0F9A3E0FAA3E011
:100B4600FBC3120449602F758BEA758DCB308FFD80
:100B5600C28F9000C3E0FCA3E0FDA3E0FEA3E02467
:100B6600FFFFEE34FFFEED34FFFDEC34FFFC90009A
:090B7600C312046D80B8C28E2286
:100A180090008B12046D53C9BF53C9DF43C910D26C
:100A2800CAE4FFFEFDFC90008BE0F8A3E0F9A3E028
:100A3800FAA3E0FBC3120449602F75CC3075CDF8DA
:100A480030CFFDC2CF90008BE0FCA3E0FDA3E0FE19
:100A5800A3E024FFFFEE34FFFEED34FFFDEC34FF8E
:0C0A6800FC90008B12046D80B8C2CA2202
:10095C009000C712046D75C40743C408E4FFFEFD84
:10096C00FC9000C7E0F8A3E0F9A3E0FAA3E0FBC316
:10097C00120449603575C52C75C6CFE5C454106496
:10098C001070F853C4EF9000C7E0FCA3E0FDA3E0A7
:10099C00FEA3E024FFFFEE34FFFEED34FFFDEC344C
:0E09AC00FFFC9000C712046D80B253C4F72206
:1009BA009000CB12046D75C40743C408E4FFFEFD22
:1009CA00FC9000CBE0F8A3E0F9A3E0FAA3E0FBC3B4
:1009DA00120449603575C5D875C6FFE5C45410645C
:1009EA001070F853C4EF9000CBE0FCA3E0FDA3E045
:1009FA00FEA3E024FFFFEE34FFFEED34FFFDEC34EE
:0E0A0A00FFFC9000CB12046D80B253C4F722A3
:030000000206A451
:1006A40075C7AA75C75575FD5A75C7AA75C7557517
:1006B400FDA5787FE4F6D8FD9000007FFF7E03E47B
:0C06C400F0A3DFFCDEFA75812102070BB9
:1006D000020BF3E493A3F8E493A34003F68001F242
:1006E00008DFF48029E493A3F85407240CC8C3332B
:1006F000C4540F4420C8834004F456800146F6DFFA
:10070000E4800B01020408102040809007EAE47E98
:10071000019360BCA3FF543F30E509541FFEE493EE
:10072000A360010ECF54C025E060A840B8E493A3B5
:10073000FAE493A3F8E493A3C8C582C8CAC583CAE0
:10074000F0A3C8C582C8CAC583CADFE9DEE780BE98
:01087A00007D
:10037B0075F008758200EF2FFFEE33FECD33CDCC39
:10038B0033CCC58233C5829BED9AEC99E5829840BC
:10039B000CF582EE9BFEED9AFDEC99FC0FD5F0D699
:1003AB00E4CEFBE4CDFAE4CCF9A88222B800C1B9C3
:1003BB000059BA002DEC8BF084CFCECDFCE5F0CB01
:1003CB00F97818EF2FFFEE33FEED33FDEC33FCEB3A
:1003DB0033FB10D703994004EB99FB0FD8E5E4F9F5
:1003EB00FA227818EF2FFFEE33FEED33FDEC33FCE2
:1003FB00C933C910D7059BE99A4007EC9BFCE99AD6
:10040B00F90FD8E0E4C9FAE4CCFB2275F010EF2F1A
:10041B00FFEE33FEED33FDCC33CCC833C810D7071A
:10042B009BEC9AE899400AED9BFDEC9AFCE899F855
:0E043B000FD5F0DAE4CDFBE4CCFAE4C8F922E8
:10044900EB9FF5F0EA9E42F0E99D42F0E89C45F009
:010459002280
:10045A00E8600FECC313FCED13FDEE13FEEF13FF80
:03046A00D8F122A4
:0C046D00ECF0A3EDF0A3EEF0A3EFF02202
:10001600E508248EF582E43400F583E00508229095
:10002600008B30070390008EE475F0011204D102B4
:1000360004792000E97F2ED2008018EF540F249017
:10004600D43440D4FF30040BEF24BFB41A0050035D
:100056002461FFE50960021509050CE50C7002052F
:100066000B30070E90008BE475F0011204D1EF02FD
:1000760004BF020C577403D2078003E4C207F508D5
:1000860090008B1204E8E4F509F50BF50CE5096020
:10009600077F2012005980F5750AFFC201C200C20F
:1000A60002C203C205C206C208120025FF700D3047
:1000B60007057F0012006AAF0CAE0B22B4255FC2A3
:1000C600D5C204120025FF24D0B40A00501A75F0D8
:1000D6000A780930D50508B6FF0106C6A426F6201B
:1000E600D5047002D20380D924CFB41A00EF50048D
:1000F600C2E5D20402026BD20180C6D20080C0D211
:100106000280BCD2D580BAD20580B47F20120059B5
:100116002002077401B5090040F1120016FF120013
:1001260059020093D208D2068095120016FB1200DF
:1001360016FA120016F94A4B7006793C7A037BFFD1
:1001460020022EE509602A7E008E82758300120445
:100156009260060EEE650A70F0C2D5EBC0E0EAC00A
:10016600E0E9C0E0EE1202B2D0E0F9D0E0FAD0E069
:10017600FB120479FF60AAEBC0E0EAC0E0E9C0E048
:10018600120059D0E02401F9D0E03400FAD0E0FBA7
:10019600E50A0460DCD50AD980877BFF7A0279AE4E
:1001A600D202809C791080027908C206C2088008B3
:1001B600D2D5790A8004790AC2D5E50A047002F517
:1001C6000AE4FAFDFEFF120016FC7B08200113125A
:1001D6000016FD7B1030000A120016FE120016FFF4
:1001E6007B20EC3382D592D55013C3E43000069FB2
:1001F600FFE49EFEE42001039DFDE49CFCE4CBF8B5
:10020600C201EC700CCFCECDCCE824F8F870F380A8
:1002160017C3EF33FFEE33FEED33FDEC33FCEB3368
:10022600FB994002FB0FD8E9EB300105F8D0E0C49A
:1002360048B201C0E00AEC4D4E4F78207B0070C2F8
:10024600EAB50A0040BCC0E01202B4D0F0D0E0200B
:100256000104C4C0E0C4B201C0F0120042D0F0D51F
:10026600F0EB0200931204F101305301AA58010188
:100276004C00FD4201AE4F01B64401B6490116439A
:0802860001BC5501A04601A0D6
:10028E004501A047035C5001052D01092E012C2BC1
:10029E00010D23012A2003452A00C5480000012430
:1002AE003F3F3F00790AA2D5200314300509B9104B
:1002BE00020404B9080104A2D5200602500104204C
:1002CE0002689202B509005034C0E07F2030031955
:1002DE007F30A20272067205500F12030BC202C2C9
:1002EE0006C205C2087F30800F300503E9C0E01258
:1002FE000059300503D0E0F9D0E0B509CC30051730
:10030E007F30B9100C1200597F583004077F788067
:10031E0003B908031200593002057F2D0200597FE0
:10032E00202008F87F2B2006F322920280CF286E21
:10033E00756C6C2900D2011200163001F8C20178DA
:10034E000930D50108F60200C52D50434958120058
:10035E00162403B405004001E49003579312004A9B
:0D036E00743A12004AD2037509040201AA74
:10047900BB010689828A83E0225002E722BBFE0281
:09048900E32289828A83E49322B4
:10049200BB010CE58229F582E5833AF583E022501F
:1004A20006E92582F8E622BBFE06E92582F8E22269
:0D04B200E58229F582E5833AF583E4932283
:1004BF00BB010689828A83F0225002F722BBFE011C
:0204CF00F32216
:1004D100F8E0FBA3A3E0F925F0F0E58215827002B4
:0704E1001583E0FA38F02258
:0904E800EBF0A3EAF0A3E9F02215
:1004F100D083D082F8E4937012740193700DA3A39A
:1005010093F8740193F5828883E4737402936860AD
:06051100EFA3A3A380DFAD
:00000001FF
