:080C2C006D61696E200D0A00E4
:080C24003099FDC2998F99225D
:100BC0007F007EC27D017C00120B877BFF7A0C794F
:100BD0002C120081120BFE12000CEF60FA120517A6
:020BE00080F59E
:100BE2002578202578202578202578207C202578D6
:0C0BF2002025782025782025780D0A00A9
:10073800C10B410082006082000000000000000040
:1007480000000000000000000000000000000000A1
:100758000000000000000000000000000000000091
:100768000000000000000000000000000000000081
:100778000000000000000000000000000000000071
:100788000000000000000000000000000000000061
:100798000000000000000000000000000000000051
:1007A8000000000000000000000000000000000041
:1007B800000000000000000000000000C109C10A9C
:030013000207C918
:1007C900C0E0C0F0C083C082C0D075D000C000C0F6
:1007D90001C002C003C004C005C006C00730093704
:1007E900120003900082E025E02400F582E4340041
:1007F900F583EEF0A3EFF0900082E004F0120C1103
:10080900D28C900082E0C39441748094804015D2C8
:100819000BC2AFC28C800D200A08D209D28CD20A31
:100829008002C20AD007D006D005D004D003D00276
:0F083900D001D000D0D0D082D083D0F0D0E03228
:100BFE00120B4C5389F0438901120C11D28AD2AADE
:030C0E00D2AF2240
:030C1100E4FFFEFF
:100C1400AD07AC06ED4C7E00EEFF8F8CEDF58A221D
:08000300AF8CEFFEAD8AEDFFAA
:01000B0022D2
:100B4C00E4900082F0900082E0FFC39441748094A2
:100B5C00805018EF25E02400F582E43400F583E49E
:100B6C00F0A3F0900082E004F080DAE4FFFE120CB7
:0B0B7C0014C20BE4900082F0C20922BA
:10069E00E4FE900082EFF0900082E0FFD39D4003D5
:1006AE00020735EE25E0FEEF25E02400F582E43466
:1006BE0000F583E0FAA3E0FBC39460EA9409400FCF
:1006CE00D3EB9410EA940E5006EE4401FE804F9048
:1006DE000082E025E02400F582E43400F583E0FAA0
:1006EE00A3E0FBC394B0EA9404400BD3EB9408EA66
:1006FE00940750028028900082E025E02400F582C5
:10070E00E43400F583E0FAA3E0FBC39470EA941797
:10071E00400CD3EB94E0EA942E50037FFF2290001E
:09072E0082E004F00206A5AF060A
:01073700229F
:100517007D087F0112069E900083EFF07D107F0912
:1005270012069E900084EFF07D187F1112069E90B0
:100537000085EFF07D207F0F12069E900086EFF07A
:100547007D287F2112069E900087EFF07D307F295E
:1005570012069E900088EFF07D387F3112069E903C
:100567000089EFF07D407F3912069E90008AEFF0F8
:100577007BFF7A0B79E2900083E0FD90008EE4F038
:10058700A3EDF0900084E0FD900090E4F0A3EDF07F
:10059700900085E0FD900092E4F0A3EDF0900086D6
:1005A700E0FD900094E4F0A3EDF0900087E0FD906B
:1005B7000096E4F0A3EDF0900088E0FD900098E449
:1005C700F0A3EDF0900089E0FD90009AE4F0A3ED30
:1005D700F0A3E4F0A3EFF01200817F907E017D008D
:0A05E7007C001209E5120B4CD2AFA4
:0105F10022E7
:06000C00A20BE433FF2209
:100B870053B1BF53B2BF53B17F53B27F7598504330
:100B97008920438780438E1053C4DFAB07AA06A979
:100BA70005A8047F407E427D0F7C001203B7EF0447
:090BB700F404F58DD28ED29922CE
:100848009000B312046D53B1BF53B2BF53B17F537D
:10085800B27F75985043878053C4F843C4209000F2
:10086800B3E0F8A3E0F9A3E0FAA3E0FB7F407E42FF
:100878007D0F7C001203B7C374FF9FFF74FF9EFEB9
:10088800E49DFDE49CFC780812045A8FC69000B3DE
:10089800E0F8A3E0F9A3E0FAA3E0FB7F407E427D05
:1008A8000F7C001203B7C374FF9FFF8FC543C408B2
:0308B800D29922B0
:070C34003098FDAF99C29852
:010C3B002296
:080C3C00C2998F993099FD2245
:1008BB009000B712046D53B1FB53B2FB53B3BF534C
:1008CB00B4BF75F85075C40853C4DF9000B7E0F897
:1008DB00A3E0F9A3E0FAA3E0FB7F407E427D0F7C0F
:1008EB00001203B7C374FF9FFF74FF9EFEE49DFDD0
:1008FB00E49CFC780812045A8FC69000B7E0F8A36A
:10090B00E0F9A3E0FAA3E0FB7F407E427D0F7C0081
:0E091B001203B7C374FF9FFF8FC543C40822A9
:070C440030F8FDAF9AC2F881
:010C4B002286
:080C4C00C2F98F9A30F9FD2274
:100A41009000BB12046D538EF7438901D28CE4FFF1
:100A5100FEFDFC9000BBE0F8A3E0F9A3E0FAA3E0FF
:100A6100FBC3120449602F758A7E758CFF308DFDA2
:100A7100C28D9000BBE0FCA3E0FDA3E0FEA3E02457
:100A8100FFFFEE34FFFEED34FFFDEC34FFFC900080
:090A9100BB12046D80B8C28C2276
:100A9A009000BF12046D538EF7438901D28CE4FF94
:100AAA00FEFDFC9000BFE0F8A3E0F9A3E0FAA3E0A2
:100ABA00FBC3120449602F758ACA758CFA308DFD02
:100ACA00C28D9000BFE0FCA3E0FDA3E0FEA3E024FA
:100ADA00FFFFEE34FFFEED34FFFDEC34FFFC900027
:090AEA00BF12046D80B8C28C2219
:100AF3009000C312046D538EEF438910D28EE4FF2E
:100B0300FEFDFC9000C3E0F8A3E0F9A3E0FAA3E044
:100B1300FBC3120449602F758BEA758DCB308FFDB3
:100B2300C28F9000C3E0FCA3E0FDA3E0FEA3E0249A
:100B3300FFFFEE34FFFEED34FFFDEC34FFFC9000CD
:090B4300C312046D80B8C28E22B9
:1009E50090008B12046D53C9BF53C9DF43C910D2A0
:1009F500CAE4FFFEFDFC90008BE0F8A3E0F9A3E05C
:100A0500FAA3E0FBC3120449602F75CC3075CDF80D
:100A150030CFFDC2CF90008BE0FCA3E0FDA3E0FE4C
:100A2500A3E024FFFFEE34FFFEED34FFFDEC34FFC1
:0C0A3500FC90008B12046D80B8C2CA2235
:100929009000C712046D75C40743C408E4FFFEFDB7
:10093900FC9000C7E0F8A3E0F9A3E0FAA3E0FBC349
:10094900120449603575C52C75C6CFE5C4541064C9
:100959001070F853C4EF9000C7E0FCA3E0FDA3E0DA
:10096900FEA3E024FFFFEE34FFFEED34FFFDEC347F
:0E097900FFFC9000C712046D80B253C4F72239
:100987009000CB12046D75C40743C408E4FFFEFD55
:10099700FC9000CBE0F8A3E0F9A3E0FAA3E0FBC3E7
:1009A700120449603575C5D875C6FFE5C45410648F
:1009B7001070F853C4EF9000CBE0FCA3E0FDA3E078
:1009C700FEA3E024FFFFEE34FFFEED34FFFDEC3421
:0E09D700FFFC9000CB12046D80B253C4F722D7
:030000000205F204
:1005F20075C7AA75C75575FD5A75C7AA75C75575CA
:10060200FDA5787FE4F6D8FD9000007FFF7E03E42D
:0C061200F0A3DFFCDEFA7581210206591E
:10061E00020BC0E493A3F8E493A34003F68001F227
:10062E0008DFF48029E493A3F85407240CC8C333DD
:10063E00C4540F4420C8834004F456800146F6DFAC
:10064E00E4800B0102040810204080900738E47EFD
:10065E00019360BCA3FF543F30E509541FFEE493A1
:10066E00A360010ECF54C025E060A840B8E493A368
:10067E00FAE493A3F8E493A3C8C582C8CAC583CA93
:10068E00F0A3C8C582C8CAC583CADFE9DEE780BE4B
:0107C8000030
:10037B0075F008758200EF2FFFEE33FECD33CDCC39
:10038B0033CCC58233C5829BED9AEC99E5829840BC
:10039B000CF582EE9BFEED9AFDEC99FC0FD5F0D699
:1003AB00E4CEFBE4CDFAE4CCF9A88222B800C1B9C3
:1003BB000059BA002DEC8BF084CFCECDFCE5F0CB01
:1003CB00F97818EF2FFFEE33FEED33FDEC33FCEB3A
:1003DB0033FB10D703994004EB99FB0FD8E5E4F9F5
:1003EB00FA227818EF2FFFEE33FEED33FDEC33FCE2
:1003FB00C933C910D7059BE99A4007EC9BFCE99AD6
:10040B00F90FD8E0E4C9FAE4CCFB2275F010EF2F1A
:10041B00FFEE33FEED33FDCC33CCC833C810D7071A
:10042B009BEC9AE899400AED9BFDEC9AFCE899F855
:0E043B000FD5F0DAE4CDFBE4CCFAE4C8F922E8
:10044900EB9FF5F0EA9E42F0E99D42F0E89C45F009
:010459002280
:10045A00E8600FECC313FCED13FDEE13FEEF13FF80
:03046A00D8F122A4
:0C046D00ECF0A3EDF0A3EEF0A3EFF02202
:10001600E508248EF582E43400F583E00508229095
:10002600008B30070390008EE475F0011204D102B4
:1000360004792000E97F2ED2008018EF540F249017
:10004600D43440D4FF30040BEF24BFB41A0050035D
:100056002461FFE50960021509050CE50C7002052F
:100066000B30070E90008BE475F0011204D1EF02FD
:1000760004BF020C247403D2078003E4C207F50808
:1000860090008B1204E8E4F509F50BF50CE5096020
:10009600077F2012005980F5750AFFC201C200C20F
:1000A60002C203C205C206C208120025FF700D3047
:1000B60007057F0012006AAF0CAE0B22B4255FC2A3
:1000C600D5C204120025FF24D0B40A00501A75F0D8
:1000D6000A780930D50508B6FF0106C6A426F6201B
:1000E600D5047002D20380D924CFB41A00EF50048D
:1000F600C2E5D20402026BD20180C6D20080C0D211
:100106000280BCD2D580BAD20580B47F20120059B5
:100116002002077401B5090040F1120016FF120013
:1001260059020093D208D2068095120016FB1200DF
:1001360016FA120016F94A4B7006793C7A037BFFD1
:1001460020022EE509602A7E008E82758300120445
:100156009260060EEE650A70F0C2D5EBC0E0EAC00A
:10016600E0E9C0E0EE1202B2D0E0F9D0E0FAD0E069
:10017600FB120479FF60AAEBC0E0EAC0E0E9C0E048
:10018600120059D0E02401F9D0E03400FAD0E0FBA7
:10019600E50A0460DCD50AD980877BFF7A0279AE4E
:1001A600D202809C791080027908C206C2088008B3
:1001B600D2D5790A8004790AC2D5E50A047002F517
:1001C6000AE4FAFDFEFF120016FC7B08200113125A
:1001D6000016FD7B1030000A120016FE120016FFF4
:1001E6007B20EC3382D592D55013C3E43000069FB2
:1001F600FFE49EFEE42001039DFDE49CFCE4CBF8B5
:10020600C201EC700CCFCECDCCE824F8F870F380A8
:1002160017C3EF33FFEE33FEED33FDEC33FCEB3368
:10022600FB994002FB0FD8E9EB300105F8D0E0C49A
:1002360048B201C0E00AEC4D4E4F78207B0070C2F8
:10024600EAB50A0040BCC0E01202B4D0F0D0E0200B
:100256000104C4C0E0C4B201C0F0120042D0F0D51F
:10026600F0EB0200931204F101305301AA58010188
:100276004C00FD4201AE4F01B64401B6490116439A
:0802860001BC5501A04601A0D6
:10028E004501A047035C5001052D01092E012C2BC1
:10029E00010D23012A2003452A00C5480000012430
:1002AE003F3F3F00790AA2D5200314300509B9104B
:1002BE00020404B9080104A2D5200602500104204C
:1002CE0002689202B509005034C0E07F2030031955
:1002DE007F30A20272067205500F12030BC202C2C9
:1002EE0006C205C2087F30800F300503E9C0E01258
:1002FE000059300503D0E0F9D0E0B509CC30051730
:10030E007F30B9100C1200597F583004077F788067
:10031E0003B908031200593002057F2D0200597FE0
:10032E00202008F87F2B2006F322920280CF286E21
:10033E00756C6C2900D2011200163001F8C20178DA
:10034E000930D50108F60200C52D50434958120058
:10035E00162403B405004001E49003579312004A9B
:0D036E00743A12004AD2037509040201AA74
:10047900BB010689828A83E0225002E722BBFE0281
:09048900E32289828A83E49322B4
:10049200BB010CE58229F582E5833AF583E022501F
:1004A20006E92582F8E622BBFE06E92582F8E22269
:0D04B200E58229F582E5833AF583E4932283
:1004BF00BB010689828A83F0225002F722BBFE011C
:0204CF00F32216
:1004D100F8E0FBA3A3E0F925F0F0E58215827002B4
:0704E1001583E0FA38F02258
:0904E800EBF0A3EAF0A3E9F02215
:1004F100D083D082F8E4937012740193700DA3A39A
:1005010093F8740193F5828883E4737402936860AD
:06051100EFA3A3A380DFAD
:00000001FF
